{
  "contractName": "Application",
  "abi": [
    {
      "inputs": [],
      "name": "fundraiserCount",
      "outputs": [
        {
          "internalType": "uint32",
          "name": "",
          "type": "uint32"
        }
      ],
      "stateMutability": "view",
      "type": "function",
      "constant": true
    },
    {
      "inputs": [
        {
          "internalType": "uint32",
          "name": "",
          "type": "uint32"
        }
      ],
      "name": "fundraisers",
      "outputs": [
        {
          "internalType": "uint32",
          "name": "id",
          "type": "uint32"
        },
        {
          "internalType": "address",
          "name": "owner",
          "type": "address"
        },
        {
          "internalType": "string",
          "name": "title",
          "type": "string"
        },
        {
          "internalType": "uint256",
          "name": "goal",
          "type": "uint256"
        },
        {
          "internalType": "uint256",
          "name": "raised",
          "type": "uint256"
        },
        {
          "internalType": "enum Application.FundraiserState",
          "name": "state",
          "type": "uint8"
        }
      ],
      "stateMutability": "view",
      "type": "function",
      "constant": true
    },
    {
      "inputs": [],
      "name": "getAllFundraisers",
      "outputs": [
        {
          "internalType": "uint32[]",
          "name": "",
          "type": "uint32[]"
        },
        {
          "internalType": "address[]",
          "name": "",
          "type": "address[]"
        },
        {
          "internalType": "string[]",
          "name": "",
          "type": "string[]"
        },
        {
          "internalType": "uint256[]",
          "name": "",
          "type": "uint256[]"
        },
        {
          "internalType": "uint256[]",
          "name": "",
          "type": "uint256[]"
        },
        {
          "internalType": "enum Application.FundraiserState[]",
          "name": "",
          "type": "uint8[]"
        }
      ],
      "stateMutability": "view",
      "type": "function",
      "constant": true
    },
    {
      "inputs": [
        {
          "internalType": "string",
          "name": "title",
          "type": "string"
        },
        {
          "internalType": "uint256",
          "name": "goal",
          "type": "uint256"
        }
      ],
      "name": "createFundraiser",
      "outputs": [
        {
          "internalType": "uint32",
          "name": "",
          "type": "uint32"
        }
      ],
      "stateMutability": "nonpayable",
      "type": "function"
    },
    {
      "inputs": [
        {
          "internalType": "uint32",
          "name": "fundraiserId",
          "type": "uint32"
        }
      ],
      "name": "supportFundraiser",
      "outputs": [],
      "stateMutability": "payable",
      "type": "function",
      "payable": true
    },
    {
      "inputs": [
        {
          "internalType": "uint32",
          "name": "fundraiserId",
          "type": "uint32"
        }
      ],
      "name": "refundFundraiser",
      "outputs": [],
      "stateMutability": "nonpayable",
      "type": "function"
    },
    {
      "inputs": [
        {
          "internalType": "uint32",
          "name": "fundraiserId",
          "type": "uint32"
        }
      ],
      "name": "completeTheFundraiser",
      "outputs": [],
      "stateMutability": "nonpayable",
      "type": "function"
    },
    {
      "inputs": [
        {
          "internalType": "uint32",
          "name": "fundraiserId",
          "type": "uint32"
        }
      ],
      "name": "cancelTheFundraiser",
      "outputs": [],
      "stateMutability": "nonpayable",
      "type": "function"
    }
  ],
  "bytecode": "0x608060405260008060006101000a81548163ffffffff021916908363ffffffff16021790555034801561003157600080fd5b506123ba806100416000396000f3fe60806040526004361061007b5760003560e01c80635694e1af1161004e5780635694e1af14610120578063c4cda78e14610149578063caf0603a14610172578063f099138a146101af5761007b565b806308e356641461008057806319dae067146100b05780632da24a2f146100d957806337cd0940146100f5575b600080fd5b34801561008c57600080fd5b506100956101f1565b6040516100a796959493929190611f74565b60405180910390f35b3480156100bc57600080fd5b506100d760048036038101906100d29190611af4565b610753565b005b6100f360048036038101906100ee9190611af4565b610a7b565b005b34801561010157600080fd5b5061010a610d85565b604051610117919061205f565b60405180910390f35b34801561012c57600080fd5b5061014760048036038101906101429190611af4565b610d99565b005b34801561015557600080fd5b50610170600480360381019061016b9190611af4565b610fe2565b005b34801561017e57600080fd5b5061019960048036038101906101949190611aa0565b611501565b6040516101a6919061205f565b60405180910390f35b3480156101bb57600080fd5b506101d660048036038101906101d19190611af4565b611752565b6040516101e89695949392919061207a565b60405180910390f35b606080606080606080606060008054906101000a900463ffffffff1663ffffffff1667ffffffffffffffff8111801561022957600080fd5b506040519080825280602002602001820160405280156102585781602001602082028036833780820191505090505b509050606060008054906101000a900463ffffffff1663ffffffff1667ffffffffffffffff8111801561028a57600080fd5b506040519080825280602002602001820160405280156102b95781602001602082028036833780820191505090505b509050606060008054906101000a900463ffffffff1663ffffffff1667ffffffffffffffff811180156102eb57600080fd5b5060405190808252806020026020018201604052801561031f57816020015b606081526020019060019003908161030a5790505b509050606060008054906101000a900463ffffffff1663ffffffff1667ffffffffffffffff8111801561035157600080fd5b506040519080825280602002602001820160405280156103805781602001602082028036833780820191505090505b509050606060008054906101000a900463ffffffff1663ffffffff1667ffffffffffffffff811180156103b257600080fd5b506040519080825280602002602001820160405280156103e15781602001602082028036833780820191505090505b509050606060008054906101000a900463ffffffff1663ffffffff1667ffffffffffffffff8111801561041357600080fd5b506040519080825280602002602001820160405280156104425781602001602082028036833780820191505090505b50905060005b60008054906101000a900463ffffffff1663ffffffff168163ffffffff16101561073257610474611863565b600160008363ffffffff1663ffffffff1681526020019081526020016000206040518060c00160405290816000820160009054906101000a900463ffffffff1663ffffffff1663ffffffff1681526020016000820160049054906101000a900473ffffffffffffffffffffffffffffffffffffffff1673ffffffffffffffffffffffffffffffffffffffff1673ffffffffffffffffffffffffffffffffffffffff168152602001600182018054600181600116156101000203166002900480601f0160208091040260200160405190810160405280929190818152602001828054600181600116156101000203166002900480156105b35780601f10610588576101008083540402835291602001916105b3565b820191906000526020600020905b81548152906001019060200180831161059657829003601f168201915b5050505050815260200160028201548152602001600382015481526020016004820160009054906101000a900460ff1660028111156105ee57fe5b60028111156105f957fe5b8152505090508060000151888363ffffffff168151811061061657fe5b602002602001019063ffffffff16908163ffffffff16815250508060200151878363ffffffff168151811061064757fe5b602002602001019073ffffffffffffffffffffffffffffffffffffffff16908173ffffffffffffffffffffffffffffffffffffffff16815250508060400151868363ffffffff168151811061069857fe5b60200260200101819052508060600151858363ffffffff16815181106106ba57fe5b6020026020010181815250508060800151848363ffffffff16815181106106dd57fe5b6020026020010181815250508060a00151838363ffffffff168151811061070057fe5b6020026020010190600281111561071357fe5b9081600281111561072057fe5b81525050508080600101915050610448565b508585858585859b509b509b509b509b509b50505050505050909192939495565b8060008054906101000a900463ffffffff1663ffffffff168163ffffffff16106107b2576040517f08c379a00000000000000000000000000000000000000000000000000000000081526004016107a990611fff565b60405180910390fd5b600060028111156107bf57fe5b600160008363ffffffff1663ffffffff16815260200190815260200160002060040160009054906101000a900460ff1660028111156107fa57fe5b1461083a576040517f08c379a00000000000000000000000000000000000000000000000000000000081526004016108319061201f565b60405180910390fd5b81600160008263ffffffff1663ffffffff16815260200190815260200160002060000160049054906101000a900473ffffffffffffffffffffffffffffffffffffffff1673ffffffffffffffffffffffffffffffffffffffff163373ffffffffffffffffffffffffffffffffffffffff16146108eb576040517f08c379a00000000000000000000000000000000000000000000000000000000081526004016108e29061203f565b60405180910390fd5b6002600160008563ffffffff1663ffffffff16815260200190815260200160002060040160006101000a81548160ff0219169083600281111561092a57fe5b02179055506000600360008563ffffffff1663ffffffff16815260200190815260200160002060010180549050905060005b81811015610a74576000600360008763ffffffff1663ffffffff168152602001908152602001600020600101828154811061099357fe5b9060005260206000200160009054906101000a900473ffffffffffffffffffffffffffffffffffffffff1690508073ffffffffffffffffffffffffffffffffffffffff166108fc600260008473ffffffffffffffffffffffffffffffffffffffff1673ffffffffffffffffffffffffffffffffffffffff16815260200190815260200160002060000160008963ffffffff1663ffffffff168152602001908152602001600020549081150290604051600060405180830381858888f19350505050158015610a65573d6000803e3d6000fd5b5050808060010191505061095c565b5050505050565b8060008054906101000a900463ffffffff1663ffffffff168163ffffffff1610610ada576040517f08c379a0000000000000000000000000000000000000000000000000000000008152600401610ad190611fff565b60405180910390fd5b60006002811115610ae757fe5b600160008363ffffffff1663ffffffff16815260200190815260200160002060040160009054906101000a900460ff166002811115610b2257fe5b14610b62576040517f08c379a0000000000000000000000000000000000000000000000000000000008152600401610b599061201f565b60405180910390fd5b60003411610b6f57600080fd5b34600160008463ffffffff1663ffffffff1681526020019081526020016000206003016000828254019250508190555034600260003373ffffffffffffffffffffffffffffffffffffffff1673ffffffffffffffffffffffffffffffffffffffff16815260200190815260200160002060000160008463ffffffff1663ffffffff168152602001908152602001600020600082825401925050819055506000600360008463ffffffff1663ffffffff16815260200190815260200160002060000160003373ffffffffffffffffffffffffffffffffffffffff1673ffffffffffffffffffffffffffffffffffffffff168152602001908152602001600020541415610d8157600360008363ffffffff1663ffffffff16815260200190815260200160002060010180549050600360008463ffffffff1663ffffffff16815260200190815260200160002060000160003373ffffffffffffffffffffffffffffffffffffffff1673ffffffffffffffffffffffffffffffffffffffff16815260200190815260200160002081905550600360008363ffffffff1663ffffffff168152602001908152602001600020600101339080600181540180825580915050600190039060005260206000200160009091909190916101000a81548173ffffffffffffffffffffffffffffffffffffffff021916908373ffffffffffffffffffffffffffffffffffffffff1602179055505b5050565b60008054906101000a900463ffffffff1681565b8060008054906101000a900463ffffffff1663ffffffff168163ffffffff1610610df8576040517f08c379a0000000000000000000000000000000000000000000000000000000008152600401610def90611fff565b60405180910390fd5b60006002811115610e0557fe5b600160008363ffffffff1663ffffffff16815260200190815260200160002060040160009054906101000a900460ff166002811115610e4057fe5b14610e80576040517f08c379a0000000000000000000000000000000000000000000000000000000008152600401610e779061201f565b60405180910390fd5b81600160008263ffffffff1663ffffffff16815260200190815260200160002060000160049054906101000a900473ffffffffffffffffffffffffffffffffffffffff1673ffffffffffffffffffffffffffffffffffffffff163373ffffffffffffffffffffffffffffffffffffffff1614610f31576040517f08c379a0000000000000000000000000000000000000000000000000000000008152600401610f289061203f565b60405180910390fd5b60018060008563ffffffff1663ffffffff16815260200190815260200160002060040160006101000a81548160ff02191690836002811115610f6f57fe5b02179055503373ffffffffffffffffffffffffffffffffffffffff166108fc600160008663ffffffff1663ffffffff168152602001908152602001600020600301549081150290604051600060405180830381858888f19350505050158015610fdc573d6000803e3d6000fd5b50505050565b8060008054906101000a900463ffffffff1663ffffffff168163ffffffff1610611041576040517f08c379a000000000000000000000000000000000000000000000000000000000815260040161103890611fff565b60405180910390fd5b6000600281111561104e57fe5b600160008363ffffffff1663ffffffff16815260200190815260200160002060040160009054906101000a900460ff16600281111561108957fe5b146110c9576040517f08c379a00000000000000000000000000000000000000000000000000000000081526004016110c09061201f565b60405180910390fd5b6000600260003373ffffffffffffffffffffffffffffffffffffffff1673ffffffffffffffffffffffffffffffffffffffff16815260200190815260200160002060000160008463ffffffff1663ffffffff168152602001908152602001600020541161113557600080fd5b6000600260003373ffffffffffffffffffffffffffffffffffffffff1673ffffffffffffffffffffffffffffffffffffffff16815260200190815260200160002060000160008463ffffffff1663ffffffff168152602001908152602001600020549050600260003373ffffffffffffffffffffffffffffffffffffffff1673ffffffffffffffffffffffffffffffffffffffff16815260200190815260200160002060000160008463ffffffff1663ffffffff1681526020019081526020016000206000905580600160008563ffffffff1663ffffffff168152602001908152602001600020600301600082825403925050819055506000600360008563ffffffff1663ffffffff16815260200190815260200160002060000160003373ffffffffffffffffffffffffffffffffffffffff1673ffffffffffffffffffffffffffffffffffffffff1681526020019081526020016000205490506000600360008663ffffffff1663ffffffff1681526020019081526020016000206001016001600360008863ffffffff1663ffffffff1681526020019081526020016000206001018054905003815481106112e757fe5b9060005260206000200160009054906101000a900473ffffffffffffffffffffffffffffffffffffffff1690506000600360008763ffffffff1663ffffffff16815260200190815260200160002060000160003373ffffffffffffffffffffffffffffffffffffffff1673ffffffffffffffffffffffffffffffffffffffff1681526020019081526020016000208190555080600360008763ffffffff1663ffffffff16815260200190815260200160002060010183815481106113a757fe5b9060005260206000200160006101000a81548173ffffffffffffffffffffffffffffffffffffffff021916908373ffffffffffffffffffffffffffffffffffffffff16021790555081600360008763ffffffff1663ffffffff16815260200190815260200160002060000160008373ffffffffffffffffffffffffffffffffffffffff1673ffffffffffffffffffffffffffffffffffffffff16815260200190815260200160002081905550600360008663ffffffff1663ffffffff16815260200190815260200160002060010180548061147e57fe5b6001900381819060005260206000200160006101000a81549073ffffffffffffffffffffffffffffffffffffffff021916905590553373ffffffffffffffffffffffffffffffffffffffff166108fc849081150290604051600060405180830381858888f193505050501580156114f9573d6000803e3d6000fd5b505050505050565b600080821161150f57600080fd5b600083511161151d57600080fd5b6040518060c0016040528060008054906101000a900463ffffffff1663ffffffff1681526020013373ffffffffffffffffffffffffffffffffffffffff168152602001848152602001838152602001600081526020016000600281111561158057fe5b815250600160008060009054906101000a900463ffffffff1663ffffffff1663ffffffff16815260200190815260200160002060008201518160000160006101000a81548163ffffffff021916908363ffffffff16021790555060208201518160000160046101000a81548173ffffffffffffffffffffffffffffffffffffffff021916908373ffffffffffffffffffffffffffffffffffffffff160217905550604082015181600101908051906020019061163d9291906118c0565b50606082015181600201556080820151816003015560a08201518160040160006101000a81548160ff0219169083600281111561167657fe5b02179055509050506040518060200160405280600073ffffffffffffffffffffffffffffffffffffffff1673ffffffffffffffffffffffffffffffffffffffff16815250600360008060009054906101000a900463ffffffff1663ffffffff1663ffffffff1681526020019081526020016000206001019060016116fb929190611940565b5060008081819054906101000a900463ffffffff168092919060010191906101000a81548163ffffffff021916908363ffffffff16021790555050600160008054906101000a900463ffffffff1603905092915050565b60016020528060005260406000206000915090508060000160009054906101000a900463ffffffff16908060000160049054906101000a900473ffffffffffffffffffffffffffffffffffffffff1690806001018054600181600116156101000203166002900480601f01602080910402602001604051908101604052809291908181526020018280546001816001161561010002031660029004801561183a5780601f1061180f5761010080835404028352916020019161183a565b820191906000526020600020905b81548152906001019060200180831161181d57829003601f168201915b5050505050908060020154908060030154908060040160009054906101000a900460ff16905086565b6040518060c00160405280600063ffffffff168152602001600073ffffffffffffffffffffffffffffffffffffffff168152602001606081526020016000815260200160008152602001600060028111156118ba57fe5b81525090565b828054600181600116156101000203166002900490600052602060002090601f016020900481019282601f1061190157805160ff191683800117855561192f565b8280016001018555821561192f579182015b8281111561192e578251825591602001919060010190611913565b5b50905061193c91906119ca565b5090565b8280548282559060005260206000209081019282156119b9579160200282015b828111156119b85782518260006101000a81548173ffffffffffffffffffffffffffffffffffffffff021916908373ffffffffffffffffffffffffffffffffffffffff16021790555091602001919060010190611960565b5b5090506119c691906119e7565b5090565b5b808211156119e35760008160009055506001016119cb565b5090565b5b80821115611a1e57600081816101000a81549073ffffffffffffffffffffffffffffffffffffffff0219169055506001016119e8565b5090565b600082601f830112611a3357600080fd5b8135611a46611a418261210f565b6120e2565b91508082526020830160208301858383011115611a6257600080fd5b611a6d8382846122f6565b50505092915050565b600081359050611a8581612356565b92915050565b600081359050611a9a8161236d565b92915050565b60008060408385031215611ab357600080fd5b600083013567ffffffffffffffff811115611acd57600080fd5b611ad985828601611a22565b9250506020611aea85828601611a76565b9150509250929050565b600060208284031215611b0657600080fd5b6000611b1484828501611a8b565b91505092915050565b6000611b298383611b91565b60208301905092915050565b6000611b418383611d9c565b60208301905092915050565b6000611b598383611dba565b905092915050565b6000611b6d8383611f38565b60208301905092915050565b6000611b858383611f56565b60208301905092915050565b611b9a81612285565b82525050565b611ba981612285565b82525050565b6000611bba8261218b565b611bc4818561220e565b9350611bcf8361213b565b8060005b83811015611c00578151611be78882611b1d565b9750611bf2836121cd565b925050600181019050611bd3565b5085935050505092915050565b6000611c1882612196565b611c228185612252565b9350611c2d8361214b565b8060005b83811015611c5e578151611c458882611b35565b9750611c50836121da565b925050600181019050611c31565b5085935050505092915050565b6000611c76826121a1565b611c80818561221f565b935083602082028501611c928561215b565b8060005b85811015611cce5784840389528151611caf8582611b4d565b9450611cba836121e7565b925060208a01995050600181019050611c96565b50829750879550505050505092915050565b6000611ceb826121ac565b611cf58185612230565b9350611d008361216b565b8060005b83811015611d31578151611d188882611b61565b9750611d23836121f4565b925050600181019050611d04565b5085935050505092915050565b6000611d49826121b7565b611d538185612241565b9350611d5e8361217b565b8060005b83811015611d8f578151611d768882611b79565b9750611d8183612201565b925050600181019050611d62565b5085935050505092915050565b611da5816122e4565b82525050565b611db4816122e4565b82525050565b6000611dc5826121c2565b611dcf8185612263565b9350611ddf818560208601612305565b611de881612338565b840191505092915050565b6000611dfe826121c2565b611e088185612274565b9350611e18818560208601612305565b611e2181612338565b840191505092915050565b6000611e39601983612274565b91507f46756e6472617973657220646f6573206e6f74206578697374000000000000006000830152602082019050919050565b6000611e79602f83612274565b91507f4f7065726174696f6e206f6e6c7920617661696c61626c6520666f722041435460008301527f4956452066756e647261797365727300000000000000000000000000000000006020830152604082019050919050565b6000611edf602d83612274565b91507f4f7065726174696f6e206f6e6c7920616c6c6f77656420666f722066756e647260008301527f61797365722773206f776e6572000000000000000000000000000000000000006020830152604082019050919050565b611f41816122ca565b82525050565b611f50816122ca565b82525050565b611f5f816122d4565b82525050565b611f6e816122d4565b82525050565b600060c0820190508181036000830152611f8e8189611d3e565b90508181036020830152611fa28188611baf565b90508181036040830152611fb68187611c6b565b90508181036060830152611fca8186611ce0565b90508181036080830152611fde8185611ce0565b905081810360a0830152611ff28184611c0d565b9050979650505050505050565b6000602082019050818103600083015261201881611e2c565b9050919050565b6000602082019050818103600083015261203881611e6c565b9050919050565b6000602082019050818103600083015261205881611ed2565b9050919050565b60006020820190506120746000830184611f65565b92915050565b600060c08201905061208f6000830189611f65565b61209c6020830188611ba0565b81810360408301526120ae8187611df3565b90506120bd6060830186611f47565b6120ca6080830185611f47565b6120d760a0830184611dab565b979650505050505050565b6000604051905081810181811067ffffffffffffffff8211171561210557600080fd5b8060405250919050565b600067ffffffffffffffff82111561212657600080fd5b601f19601f8301169050602081019050919050565b6000819050602082019050919050565b6000819050602082019050919050565b6000819050602082019050919050565b6000819050602082019050919050565b6000819050602082019050919050565b600081519050919050565b600081519050919050565b600081519050919050565b600081519050919050565b600081519050919050565b600081519050919050565b6000602082019050919050565b6000602082019050919050565b6000602082019050919050565b6000602082019050919050565b6000602082019050919050565b600082825260208201905092915050565b600082825260208201905092915050565b600082825260208201905092915050565b600082825260208201905092915050565b600082825260208201905092915050565b600082825260208201905092915050565b600082825260208201905092915050565b6000612290826122aa565b9050919050565b60008190506122a582612349565b919050565b600073ffffffffffffffffffffffffffffffffffffffff82169050919050565b6000819050919050565b600063ffffffff82169050919050565b60006122ef82612297565b9050919050565b82818337600083830152505050565b60005b83811015612323578082015181840152602081019050612308565b83811115612332576000848401525b50505050565b6000601f19601f8301169050919050565b6003811061235357fe5b50565b61235f816122ca565b811461236a57600080fd5b50565b612376816122d4565b811461238157600080fd5b5056fea2646970667358221220b1f3e2c43265da79d01fd418ee790aa05f13ded177ffd291068d25c7080e8b7264736f6c63430007000033",
  "immutableReferences": {},
  "source": "// SPDX-License-Identifier: GPL-3.0\r\npragma solidity >=0.7.0 <0.8.0;\r\npragma experimental ABIEncoderV2;\r\n\r\ncontract Application {\r\n\r\n    enum FundraiserState {ACTIVE, COMPLETED, CANCELLED}\r\n    \r\n    struct Fundraiser {\r\n        uint32 id;\r\n        address owner;\r\n        string title;\r\n        uint256 goal; // In wei\r\n        uint256 raised; // In wei\r\n        FundraiserState state;\r\n    }\r\n\r\n    struct UserFundings {\r\n        mapping(uint32 => uint256) funded; // fundraiser id => funded amount\r\n    }\r\n\r\n    uint32 public fundraiserCount = 0;\r\n\r\n    mapping(uint32 => Fundraiser) public fundraisers;\r\n    mapping(address => UserFundings) fundingsByUser;\r\n\r\n    struct FundersMapping {\r\n        mapping(address => uint) addressIndex;\r\n        address payable[] fundersAddreses; // Dummy element at 0\r\n    }\r\n    mapping(uint32 => FundersMapping) fundersByFundraiserId;\r\n\r\n    modifier onlyOwner(uint32 fundraiserId) {\r\n        require(msg.sender == fundraisers[fundraiserId].owner, \"Operation only allowed for fundrayser's owner\");\r\n        _;\r\n    }\r\n\r\n    modifier activeFundraiser(uint32 fundraiserId) {\r\n        require(fundraiserId < fundraiserCount, \"Fundrayser does not exist\");\r\n        require(fundraisers[fundraiserId].state == FundraiserState.ACTIVE, \"Operation only available for ACTIVE fundraysers\");\r\n        _;\r\n    }\r\n\r\n    function getAllFundraisers() public view returns \r\n        (uint32[] memory, address[] memory, string[] memory, uint256[] memory, uint256[] memory, FundraiserState[] memory) {\r\n        \r\n        uint32[] memory ids = new uint32[](fundraiserCount);\r\n        address[] memory adresses = new address[](fundraiserCount);\r\n        string[] memory titles = new string[](fundraiserCount);\r\n        uint256[] memory goals = new uint256[](fundraiserCount);\r\n        uint256[] memory raised = new uint256[](fundraiserCount);\r\n        FundraiserState[] memory states = new FundraiserState[](fundraiserCount);\r\n\r\n        for(uint32 i = 0; i < fundraiserCount; i++) {\r\n            Fundraiser memory raiser = fundraisers[i];\r\n            ids[i] = raiser.id;\r\n            adresses[i] = raiser.owner;\r\n            titles[i] = raiser.title;\r\n            goals[i] = raiser.goal;\r\n            raised[i] = raiser.raised;\r\n            states[i] = raiser.state;\r\n        }\r\n\r\n        return(ids, adresses, titles, goals, raised, states);\r\n    }\r\n\r\n\r\n    function createFundraiser(string memory title, uint256 goal) public returns(uint32) {\r\n        require(goal > 0);\r\n        require(bytes(title).length > 0);\r\n\r\n        fundraisers[fundraiserCount] = Fundraiser(\r\n            fundraiserCount, msg.sender, title, goal, 0, FundraiserState.ACTIVE\r\n        );\r\n\r\n        fundersByFundraiserId[fundraiserCount].fundersAddreses = [address(0)];\r\n        fundraiserCount++;\r\n        \r\n        return(fundraiserCount - 1);\r\n    }\r\n\r\n    function supportFundraiser(uint32 fundraiserId) public payable activeFundraiser(fundraiserId) {\r\n        require(msg.value > 0);\r\n\r\n        fundraisers[fundraiserId].raised += msg.value;\r\n        fundingsByUser[msg.sender].funded[fundraiserId] += msg.value;\r\n\r\n        if(fundersByFundraiserId[fundraiserId].addressIndex[msg.sender] == 0) {\r\n            fundersByFundraiserId[fundraiserId].addressIndex[msg.sender] = fundersByFundraiserId[fundraiserId].fundersAddreses.length;\r\n            fundersByFundraiserId[fundraiserId].fundersAddreses.push(msg.sender);\r\n        }\r\n    }\r\n\r\n    function refundFundraiser(uint32 fundraiserId) public activeFundraiser(fundraiserId) {\r\n        require(fundingsByUser[msg.sender].funded[fundraiserId] > 0);\r\n\r\n        uint256 funded = fundingsByUser[msg.sender].funded[fundraiserId];\r\n        delete fundingsByUser[msg.sender].funded[fundraiserId];\r\n        fundraisers[fundraiserId].raised -= funded;\r\n\r\n        // Delete funding from the fundersByFundraiserId lookup\r\n        uint userIndex = fundersByFundraiserId[fundraiserId].addressIndex[msg.sender];\r\n        address payable lastAddress = fundersByFundraiserId[fundraiserId].fundersAddreses[\r\n            fundersByFundraiserId[fundraiserId].fundersAddreses.length - 1\r\n        ];\r\n\r\n        fundersByFundraiserId[fundraiserId].addressIndex[msg.sender] = 0;\r\n        fundersByFundraiserId[fundraiserId].fundersAddreses[userIndex] = lastAddress;\r\n        fundersByFundraiserId[fundraiserId].addressIndex[lastAddress] = userIndex;\r\n        fundersByFundraiserId[fundraiserId].fundersAddreses.pop();\r\n\r\n        msg.sender.transfer(funded);\r\n    }\r\n\r\n    function completeTheFundraiser(uint32 fundraiserId) public activeFundraiser(fundraiserId) onlyOwner(fundraiserId) {\r\n        fundraisers[fundraiserId].state = FundraiserState.COMPLETED;\r\n        msg.sender.transfer(fundraisers[fundraiserId].raised);\r\n    }\r\n\r\n    function cancelTheFundraiser(uint32 fundraiserId) public activeFundraiser(fundraiserId) onlyOwner(fundraiserId) {\r\n        fundraisers[fundraiserId].state = FundraiserState.CANCELLED;\r\n\r\n        uint256 refundsCount = fundersByFundraiserId[fundraiserId].fundersAddreses.length;\r\n        for(uint256 i = 0; i < refundsCount; i++) {\r\n            address payable refundAddress = fundersByFundraiserId[fundraiserId].fundersAddreses[i];\r\n            refundAddress.transfer(\r\n                fundingsByUser[refundAddress].funded[fundraiserId]\r\n            );\r\n        }\r\n    }\r\n}",
  "sourcePath": "C:/Uni/BlockChain/dapp/contracts/Application.sol",
  "compiler": {
    "name": "solc",
    "version": "0.7.0+commit.9e61f92b.Emscripten.clang"
  },
  "schemaVersion": "3.3.2",
  "updatedAt": "2020-12-12T22:28:52.647Z",
  "networkType": "ethereum",
  "devdoc": {
    "kind": "dev",
    "methods": {},
    "version": 1
  },
  "userdoc": {
    "kind": "user",
    "methods": {},
    "version": 1
  }
}