{
  "contractName": "Application",
  "abi": [
    {
      "anonymous": false,
      "inputs": [
        {
          "indexed": false,
          "internalType": "uint32",
          "name": "id",
          "type": "uint32"
        },
        {
          "indexed": false,
          "internalType": "string",
          "name": "title",
          "type": "string"
        },
        {
          "indexed": false,
          "internalType": "uint256",
          "name": "goal",
          "type": "uint256"
        },
        {
          "indexed": false,
          "internalType": "address",
          "name": "owner",
          "type": "address"
        }
      ],
      "name": "FundraiserCreated",
      "type": "event"
    },
    {
      "anonymous": false,
      "inputs": [
        {
          "indexed": false,
          "internalType": "uint32",
          "name": "id",
          "type": "uint32"
        },
        {
          "indexed": false,
          "internalType": "uint256",
          "name": "raised",
          "type": "uint256"
        }
      ],
      "name": "FundraiserFundsChanged",
      "type": "event"
    },
    {
      "anonymous": false,
      "inputs": [
        {
          "indexed": false,
          "internalType": "uint32",
          "name": "id",
          "type": "uint32"
        },
        {
          "indexed": false,
          "internalType": "enum Application.FundraiserState",
          "name": "state",
          "type": "uint8"
        }
      ],
      "name": "FundraiserStateChanged",
      "type": "event"
    },
    {
      "inputs": [],
      "name": "fundraiserCount",
      "outputs": [
        {
          "internalType": "uint32",
          "name": "",
          "type": "uint32"
        }
      ],
      "stateMutability": "view",
      "type": "function",
      "constant": true
    },
    {
      "inputs": [
        {
          "internalType": "uint32",
          "name": "",
          "type": "uint32"
        }
      ],
      "name": "fundraisers",
      "outputs": [
        {
          "internalType": "uint32",
          "name": "id",
          "type": "uint32"
        },
        {
          "internalType": "address",
          "name": "owner",
          "type": "address"
        },
        {
          "internalType": "string",
          "name": "title",
          "type": "string"
        },
        {
          "internalType": "uint256",
          "name": "goal",
          "type": "uint256"
        },
        {
          "internalType": "uint256",
          "name": "raised",
          "type": "uint256"
        },
        {
          "internalType": "enum Application.FundraiserState",
          "name": "state",
          "type": "uint8"
        }
      ],
      "stateMutability": "view",
      "type": "function",
      "constant": true
    },
    {
      "inputs": [],
      "name": "getAllFundraisers",
      "outputs": [
        {
          "internalType": "uint32[]",
          "name": "",
          "type": "uint32[]"
        },
        {
          "internalType": "address[]",
          "name": "",
          "type": "address[]"
        },
        {
          "internalType": "string[]",
          "name": "",
          "type": "string[]"
        },
        {
          "internalType": "uint256[]",
          "name": "",
          "type": "uint256[]"
        },
        {
          "internalType": "uint256[]",
          "name": "",
          "type": "uint256[]"
        },
        {
          "internalType": "enum Application.FundraiserState[]",
          "name": "",
          "type": "uint8[]"
        }
      ],
      "stateMutability": "view",
      "type": "function",
      "constant": true
    },
    {
      "inputs": [
        {
          "internalType": "string",
          "name": "title",
          "type": "string"
        },
        {
          "internalType": "uint256",
          "name": "goal",
          "type": "uint256"
        }
      ],
      "name": "createFundraiser",
      "outputs": [],
      "stateMutability": "nonpayable",
      "type": "function"
    },
    {
      "inputs": [
        {
          "internalType": "uint32",
          "name": "fundraiserId",
          "type": "uint32"
        }
      ],
      "name": "supportFundraiser",
      "outputs": [],
      "stateMutability": "payable",
      "type": "function",
      "payable": true
    },
    {
      "inputs": [
        {
          "internalType": "uint32",
          "name": "fundraiserId",
          "type": "uint32"
        }
      ],
      "name": "refundFundraiser",
      "outputs": [],
      "stateMutability": "nonpayable",
      "type": "function"
    },
    {
      "inputs": [
        {
          "internalType": "uint32",
          "name": "fundraiserId",
          "type": "uint32"
        }
      ],
      "name": "completeTheFundraiser",
      "outputs": [],
      "stateMutability": "nonpayable",
      "type": "function"
    },
    {
      "inputs": [
        {
          "internalType": "uint32",
          "name": "fundraiserId",
          "type": "uint32"
        }
      ],
      "name": "cancelTheFundraiser",
      "outputs": [],
      "stateMutability": "nonpayable",
      "type": "function"
    }
  ],
  "bytecode": "0x608060405260008060006101000a81548163ffffffff021916908363ffffffff16021790555034801561003157600080fd5b506125bc806100416000396000f3fe60806040526004361061007b5760003560e01c80635694e1af1161004e5780635694e1af14610120578063c4cda78e14610149578063caf0603a14610172578063f099138a1461019b5761007b565b806308e356641461008057806319dae067146100b05780632da24a2f146100d957806337cd0940146100f5575b600080fd5b34801561008c57600080fd5b506100956101dd565b6040516100a7969594939291906120a2565b60405180910390f35b3480156100bc57600080fd5b506100d760048036038101906100d29190611c13565b61073f565b005b6100f360048036038101906100ee9190611c13565b610aa1565b005b34801561010157600080fd5b5061010a610e06565b604051610117919061218d565b60405180910390f35b34801561012c57600080fd5b5061014760048036038101906101429190611c13565b610e1a565b005b34801561015557600080fd5b50610170600480360381019061016b9190611c13565b61109d565b005b34801561017e57600080fd5b5061019960048036038101906101949190611bbf565b611617565b005b3480156101a757600080fd5b506101c260048036038101906101bd9190611c13565b611871565b6040516101d4969594939291906121a8565b60405180910390f35b606080606080606080606060008054906101000a900463ffffffff1663ffffffff1667ffffffffffffffff8111801561021557600080fd5b506040519080825280602002602001820160405280156102445781602001602082028036833780820191505090505b509050606060008054906101000a900463ffffffff1663ffffffff1667ffffffffffffffff8111801561027657600080fd5b506040519080825280602002602001820160405280156102a55781602001602082028036833780820191505090505b509050606060008054906101000a900463ffffffff1663ffffffff1667ffffffffffffffff811180156102d757600080fd5b5060405190808252806020026020018201604052801561030b57816020015b60608152602001906001900390816102f65790505b509050606060008054906101000a900463ffffffff1663ffffffff1667ffffffffffffffff8111801561033d57600080fd5b5060405190808252806020026020018201604052801561036c5781602001602082028036833780820191505090505b509050606060008054906101000a900463ffffffff1663ffffffff1667ffffffffffffffff8111801561039e57600080fd5b506040519080825280602002602001820160405280156103cd5781602001602082028036833780820191505090505b509050606060008054906101000a900463ffffffff1663ffffffff1667ffffffffffffffff811180156103ff57600080fd5b5060405190808252806020026020018201604052801561042e5781602001602082028036833780820191505090505b50905060005b60008054906101000a900463ffffffff1663ffffffff168163ffffffff16101561071e57610460611982565b600160008363ffffffff1663ffffffff1681526020019081526020016000206040518060c00160405290816000820160009054906101000a900463ffffffff1663ffffffff1663ffffffff1681526020016000820160049054906101000a900473ffffffffffffffffffffffffffffffffffffffff1673ffffffffffffffffffffffffffffffffffffffff1673ffffffffffffffffffffffffffffffffffffffff168152602001600182018054600181600116156101000203166002900480601f01602080910402602001604051908101604052809291908181526020018280546001816001161561010002031660029004801561059f5780601f106105745761010080835404028352916020019161059f565b820191906000526020600020905b81548152906001019060200180831161058257829003601f168201915b5050505050815260200160028201548152602001600382015481526020016004820160009054906101000a900460ff1660028111156105da57fe5b60028111156105e557fe5b8152505090508060000151888363ffffffff168151811061060257fe5b602002602001019063ffffffff16908163ffffffff16815250508060200151878363ffffffff168151811061063357fe5b602002602001019073ffffffffffffffffffffffffffffffffffffffff16908173ffffffffffffffffffffffffffffffffffffffff16815250508060400151868363ffffffff168151811061068457fe5b60200260200101819052508060600151858363ffffffff16815181106106a657fe5b6020026020010181815250508060800151848363ffffffff16815181106106c957fe5b6020026020010181815250508060a00151838363ffffffff16815181106106ec57fe5b602002602001019060028111156106ff57fe5b9081600281111561070c57fe5b81525050508080600101915050610434565b508585858585859b509b509b509b509b509b50505050505050909192939495565b8060008054906101000a900463ffffffff1663ffffffff168163ffffffff161061079e576040517f08c379a00000000000000000000000000000000000000000000000000000000081526004016107959061212d565b60405180910390fd5b600060028111156107ab57fe5b600160008363ffffffff1663ffffffff16815260200190815260200160002060040160009054906101000a900460ff1660028111156107e657fe5b14610826576040517f08c379a000000000000000000000000000000000000000000000000000000000815260040161081d9061214d565b60405180910390fd5b81600160008263ffffffff1663ffffffff16815260200190815260200160002060000160049054906101000a900473ffffffffffffffffffffffffffffffffffffffff1673ffffffffffffffffffffffffffffffffffffffff163373ffffffffffffffffffffffffffffffffffffffff16146108d7576040517f08c379a00000000000000000000000000000000000000000000000000000000081526004016108ce9061216d565b60405180910390fd5b6002600160008563ffffffff1663ffffffff16815260200190815260200160002060040160006101000a81548160ff0219169083600281111561091657fe5b02179055506000600360008563ffffffff1663ffffffff16815260200190815260200160002060010180549050905060005b81811015610a60576000600360008763ffffffff1663ffffffff168152602001908152602001600020600101828154811061097f57fe5b9060005260206000200160009054906101000a900473ffffffffffffffffffffffffffffffffffffffff1690508073ffffffffffffffffffffffffffffffffffffffff166108fc600260008473ffffffffffffffffffffffffffffffffffffffff1673ffffffffffffffffffffffffffffffffffffffff16815260200190815260200160002060000160008963ffffffff1663ffffffff168152602001908152602001600020549081150290604051600060405180830381858888f19350505050158015610a51573d6000803e3d6000fd5b50508080600101915050610948565b507f112be91584be9435c5bef25eb6f08ab111140bdda046a26dfcf079b456df0b93846002604051610a93929190612210565b60405180910390a150505050565b8060008054906101000a900463ffffffff1663ffffffff168163ffffffff1610610b00576040517f08c379a0000000000000000000000000000000000000000000000000000000008152600401610af79061212d565b60405180910390fd5b60006002811115610b0d57fe5b600160008363ffffffff1663ffffffff16815260200190815260200160002060040160009054906101000a900460ff166002811115610b4857fe5b14610b88576040517f08c379a0000000000000000000000000000000000000000000000000000000008152600401610b7f9061214d565b60405180910390fd5b60003411610b9557600080fd5b34600160008463ffffffff1663ffffffff1681526020019081526020016000206003016000828254019250508190555034600260003373ffffffffffffffffffffffffffffffffffffffff1673ffffffffffffffffffffffffffffffffffffffff16815260200190815260200160002060000160008463ffffffff1663ffffffff168152602001908152602001600020600082825401925050819055506000600360008463ffffffff1663ffffffff16815260200190815260200160002060000160003373ffffffffffffffffffffffffffffffffffffffff1673ffffffffffffffffffffffffffffffffffffffff168152602001908152602001600020541415610da757600360008363ffffffff1663ffffffff16815260200190815260200160002060010180549050600360008463ffffffff1663ffffffff16815260200190815260200160002060000160003373ffffffffffffffffffffffffffffffffffffffff1673ffffffffffffffffffffffffffffffffffffffff16815260200190815260200160002081905550600360008363ffffffff1663ffffffff168152602001908152602001600020600101339080600181540180825580915050600190039060005260206000200160009091909190916101000a81548173ffffffffffffffffffffffffffffffffffffffff021916908373ffffffffffffffffffffffffffffffffffffffff1602179055505b7fb19d2db2dd5e069b2ba387a3543defc7a9352913a5f7d20c6a1c4e96db5a2ec882600160008563ffffffff1663ffffffff16815260200190815260200160002060030154604051610dfa929190612285565b60405180910390a15050565b60008054906101000a900463ffffffff1681565b8060008054906101000a900463ffffffff1663ffffffff168163ffffffff1610610e79576040517f08c379a0000000000000000000000000000000000000000000000000000000008152600401610e709061212d565b60405180910390fd5b60006002811115610e8657fe5b600160008363ffffffff1663ffffffff16815260200190815260200160002060040160009054906101000a900460ff166002811115610ec157fe5b14610f01576040517f08c379a0000000000000000000000000000000000000000000000000000000008152600401610ef89061214d565b60405180910390fd5b81600160008263ffffffff1663ffffffff16815260200190815260200160002060000160049054906101000a900473ffffffffffffffffffffffffffffffffffffffff1673ffffffffffffffffffffffffffffffffffffffff163373ffffffffffffffffffffffffffffffffffffffff1614610fb2576040517f08c379a0000000000000000000000000000000000000000000000000000000008152600401610fa99061216d565b60405180910390fd5b60018060008563ffffffff1663ffffffff16815260200190815260200160002060040160006101000a81548160ff02191690836002811115610ff057fe5b02179055503373ffffffffffffffffffffffffffffffffffffffff166108fc600160008663ffffffff1663ffffffff168152602001908152602001600020600301549081150290604051600060405180830381858888f1935050505015801561105d573d6000803e3d6000fd5b507f112be91584be9435c5bef25eb6f08ab111140bdda046a26dfcf079b456df0b93836001604051611090929190612210565b60405180910390a1505050565b8060008054906101000a900463ffffffff1663ffffffff168163ffffffff16106110fc576040517f08c379a00000000000000000000000000000000000000000000000000000000081526004016110f39061212d565b60405180910390fd5b6000600281111561110957fe5b600160008363ffffffff1663ffffffff16815260200190815260200160002060040160009054906101000a900460ff16600281111561114457fe5b14611184576040517f08c379a000000000000000000000000000000000000000000000000000000000815260040161117b9061214d565b60405180910390fd5b6000600260003373ffffffffffffffffffffffffffffffffffffffff1673ffffffffffffffffffffffffffffffffffffffff16815260200190815260200160002060000160008463ffffffff1663ffffffff16815260200190815260200160002054116111f057600080fd5b6000600260003373ffffffffffffffffffffffffffffffffffffffff1673ffffffffffffffffffffffffffffffffffffffff16815260200190815260200160002060000160008463ffffffff1663ffffffff168152602001908152602001600020549050600260003373ffffffffffffffffffffffffffffffffffffffff1673ffffffffffffffffffffffffffffffffffffffff16815260200190815260200160002060000160008463ffffffff1663ffffffff1681526020019081526020016000206000905580600160008563ffffffff1663ffffffff168152602001908152602001600020600301600082825403925050819055506000600360008563ffffffff1663ffffffff16815260200190815260200160002060000160003373ffffffffffffffffffffffffffffffffffffffff1673ffffffffffffffffffffffffffffffffffffffff1681526020019081526020016000205490506000600360008663ffffffff1663ffffffff1681526020019081526020016000206001016001600360008863ffffffff1663ffffffff1681526020019081526020016000206001018054905003815481106113a257fe5b9060005260206000200160009054906101000a900473ffffffffffffffffffffffffffffffffffffffff1690506000600360008763ffffffff1663ffffffff16815260200190815260200160002060000160003373ffffffffffffffffffffffffffffffffffffffff1673ffffffffffffffffffffffffffffffffffffffff1681526020019081526020016000208190555080600360008763ffffffff1663ffffffff168152602001908152602001600020600101838154811061146257fe5b9060005260206000200160006101000a81548173ffffffffffffffffffffffffffffffffffffffff021916908373ffffffffffffffffffffffffffffffffffffffff16021790555081600360008763ffffffff1663ffffffff16815260200190815260200160002060000160008373ffffffffffffffffffffffffffffffffffffffff1673ffffffffffffffffffffffffffffffffffffffff16815260200190815260200160002081905550600360008663ffffffff1663ffffffff16815260200190815260200160002060010180548061153957fe5b6001900381819060005260206000200160006101000a81549073ffffffffffffffffffffffffffffffffffffffff021916905590553373ffffffffffffffffffffffffffffffffffffffff166108fc849081150290604051600060405180830381858888f193505050501580156115b4573d6000803e3d6000fd5b507fb19d2db2dd5e069b2ba387a3543defc7a9352913a5f7d20c6a1c4e96db5a2ec885600160008863ffffffff1663ffffffff16815260200190815260200160002060030154604051611608929190612285565b60405180910390a15050505050565b6000811161162457600080fd5b600082511161163257600080fd5b60008060009054906101000a900463ffffffff1690506040518060c001604052808263ffffffff1681526020013373ffffffffffffffffffffffffffffffffffffffff168152602001848152602001838152602001600081526020016000600281111561169b57fe5b815250600160008363ffffffff1663ffffffff16815260200190815260200160002060008201518160000160006101000a81548163ffffffff021916908363ffffffff16021790555060208201518160000160046101000a81548173ffffffffffffffffffffffffffffffffffffffff021916908373ffffffffffffffffffffffffffffffffffffffff16021790555060408201518160010190805190602001906117479291906119df565b50606082015181600201556080820151816003015560a08201518160040160006101000a81548160ff0219169083600281111561178057fe5b02179055509050506040518060200160405280600073ffffffffffffffffffffffffffffffffffffffff1673ffffffffffffffffffffffffffffffffffffffff16815250600360008363ffffffff1663ffffffff1681526020019081526020016000206001019060016117f4929190611a5f565b5060008081819054906101000a900463ffffffff168092919060010191906101000a81548163ffffffff021916908363ffffffff160217905550507f5b31a794adc439f7ddfc03375dc4581cd5c3737bb5081730a1996668eae6e5e9818484336040516118649493929190612239565b60405180910390a1505050565b60016020528060005260406000206000915090508060000160009054906101000a900463ffffffff16908060000160049054906101000a900473ffffffffffffffffffffffffffffffffffffffff1690806001018054600181600116156101000203166002900480601f0160208091040260200160405190810160405280929190818152602001828054600181600116156101000203166002900480156119595780601f1061192e57610100808354040283529160200191611959565b820191906000526020600020905b81548152906001019060200180831161193c57829003601f168201915b5050505050908060020154908060030154908060040160009054906101000a900460ff16905086565b6040518060c00160405280600063ffffffff168152602001600073ffffffffffffffffffffffffffffffffffffffff168152602001606081526020016000815260200160008152602001600060028111156119d957fe5b81525090565b828054600181600116156101000203166002900490600052602060002090601f016020900481019282601f10611a2057805160ff1916838001178555611a4e565b82800160010185558215611a4e579182015b82811115611a4d578251825591602001919060010190611a32565b5b509050611a5b9190611ae9565b5090565b828054828255906000526020600020908101928215611ad8579160200282015b82811115611ad75782518260006101000a81548173ffffffffffffffffffffffffffffffffffffffff021916908373ffffffffffffffffffffffffffffffffffffffff16021790555091602001919060010190611a7f565b5b509050611ae59190611b06565b5090565b5b80821115611b02576000816000905550600101611aea565b5090565b5b80821115611b3d57600081816101000a81549073ffffffffffffffffffffffffffffffffffffffff021916905550600101611b07565b5090565b600082601f830112611b5257600080fd5b8135611b65611b60826122db565b6122ae565b91508082526020830160208301858383011115611b8157600080fd5b611b8c8382846124f8565b50505092915050565b600081359050611ba481612558565b92915050565b600081359050611bb98161256f565b92915050565b60008060408385031215611bd257600080fd5b600083013567ffffffffffffffff811115611bec57600080fd5b611bf885828601611b41565b9250506020611c0985828601611b95565b9150509250929050565b600060208284031215611c2557600080fd5b6000611c3384828501611baa565b91505092915050565b6000611c488383611cbf565b60208301905092915050565b6000611c608383611eca565b60208301905092915050565b6000611c788383611ee8565b905092915050565b6000611c8c8383612066565b60208301905092915050565b6000611ca48383612084565b60208301905092915050565b611cb9816124b0565b82525050565b611cc881612451565b82525050565b611cd781612451565b82525050565b6000611ce882612357565b611cf281856123da565b9350611cfd83612307565b8060005b83811015611d2e578151611d158882611c3c565b9750611d2083612399565b925050600181019050611d01565b5085935050505092915050565b6000611d4682612362565b611d50818561241e565b9350611d5b83612317565b8060005b83811015611d8c578151611d738882611c54565b9750611d7e836123a6565b925050600181019050611d5f565b5085935050505092915050565b6000611da48261236d565b611dae81856123eb565b935083602082028501611dc085612327565b8060005b85811015611dfc5784840389528151611ddd8582611c6c565b9450611de8836123b3565b925060208a01995050600181019050611dc4565b50829750879550505050505092915050565b6000611e1982612378565b611e2381856123fc565b9350611e2e83612337565b8060005b83811015611e5f578151611e468882611c80565b9750611e51836123c0565b925050600181019050611e32565b5085935050505092915050565b6000611e7782612383565b611e81818561240d565b9350611e8c83612347565b8060005b83811015611ebd578151611ea48882611c98565b9750611eaf836123cd565b925050600181019050611e90565b5085935050505092915050565b611ed3816124c2565b82525050565b611ee2816124c2565b82525050565b6000611ef38261238e565b611efd818561242f565b9350611f0d818560208601612507565b611f168161253a565b840191505092915050565b6000611f2c8261238e565b611f368185612440565b9350611f46818560208601612507565b611f4f8161253a565b840191505092915050565b6000611f67601983612440565b91507f46756e6472617973657220646f6573206e6f74206578697374000000000000006000830152602082019050919050565b6000611fa7602f83612440565b91507f4f7065726174696f6e206f6e6c7920617661696c61626c6520666f722041435460008301527f4956452066756e647261797365727300000000000000000000000000000000006020830152604082019050919050565b600061200d602d83612440565b91507f4f7065726174696f6e206f6e6c7920616c6c6f77656420666f722066756e647260008301527f61797365722773206f776e6572000000000000000000000000000000000000006020830152604082019050919050565b61206f81612496565b82525050565b61207e81612496565b82525050565b61208d816124a0565b82525050565b61209c816124a0565b82525050565b600060c08201905081810360008301526120bc8189611e6c565b905081810360208301526120d08188611cdd565b905081810360408301526120e48187611d99565b905081810360608301526120f88186611e0e565b9050818103608083015261210c8185611e0e565b905081810360a08301526121208184611d3b565b9050979650505050505050565b6000602082019050818103600083015261214681611f5a565b9050919050565b6000602082019050818103600083015261216681611f9a565b9050919050565b6000602082019050818103600083015261218681612000565b9050919050565b60006020820190506121a26000830184612093565b92915050565b600060c0820190506121bd6000830189612093565b6121ca6020830188611cce565b81810360408301526121dc8187611f21565b90506121eb6060830186612075565b6121f86080830185612075565b61220560a0830184611ed9565b979650505050505050565b60006040820190506122256000830185612093565b6122326020830184611ed9565b9392505050565b600060808201905061224e6000830187612093565b81810360208301526122608186611f21565b905061226f6040830185612075565b61227c6060830184611cb0565b95945050505050565b600060408201905061229a6000830185612093565b6122a76020830184612075565b9392505050565b6000604051905081810181811067ffffffffffffffff821117156122d157600080fd5b8060405250919050565b600067ffffffffffffffff8211156122f257600080fd5b601f19601f8301169050602081019050919050565b6000819050602082019050919050565b6000819050602082019050919050565b6000819050602082019050919050565b6000819050602082019050919050565b6000819050602082019050919050565b600081519050919050565b600081519050919050565b600081519050919050565b600081519050919050565b600081519050919050565b600081519050919050565b6000602082019050919050565b6000602082019050919050565b6000602082019050919050565b6000602082019050919050565b6000602082019050919050565b600082825260208201905092915050565b600082825260208201905092915050565b600082825260208201905092915050565b600082825260208201905092915050565b600082825260208201905092915050565b600082825260208201905092915050565b600082825260208201905092915050565b600061245c82612476565b9050919050565b60008190506124718261254b565b919050565b600073ffffffffffffffffffffffffffffffffffffffff82169050919050565b6000819050919050565b600063ffffffff82169050919050565b60006124bb826124d4565b9050919050565b60006124cd82612463565b9050919050565b60006124df826124e6565b9050919050565b60006124f182612476565b9050919050565b82818337600083830152505050565b60005b8381101561252557808201518184015260208101905061250a565b83811115612534576000848401525b50505050565b6000601f19601f8301169050919050565b6003811061255557fe5b50565b61256181612496565b811461256c57600080fd5b50565b612578816124a0565b811461258357600080fd5b5056fea2646970667358221220a3b3b48daa711bc231340019f881e87bd0de76de25bc2441b042bb5dfb4c209a64736f6c63430007000033",
  "immutableReferences": {},
  "source": "// SPDX-License-Identifier: GPL-3.0\r\npragma solidity >=0.7.0 <0.8.0;\r\npragma experimental ABIEncoderV2;\r\n\r\ncontract Application {\r\n\r\n    enum FundraiserState {ACTIVE, COMPLETED, CANCELLED}\r\n    \r\n    struct Fundraiser {\r\n        uint32 id;\r\n        address owner;\r\n        string title;\r\n        uint256 goal; // In wei\r\n        uint256 raised; // In wei\r\n        FundraiserState state;\r\n    }\r\n\r\n    struct UserFundings {\r\n        mapping(uint32 => uint256) funded; // fundraiser id => funded amount\r\n    }\r\n\r\n    uint32 public fundraiserCount = 0;\r\n\r\n    mapping(uint32 => Fundraiser) public fundraisers;\r\n    mapping(address => UserFundings) fundingsByUser;\r\n\r\n    struct FundersMapping {\r\n        mapping(address => uint) addressIndex;\r\n        address payable[] fundersAddreses; // Dummy element at 0\r\n    }\r\n    mapping(uint32 => FundersMapping) fundersByFundraiserId;\r\n\r\n    event FundraiserCreated(\r\n        uint32 id,\r\n        string title,\r\n        uint256 goal,\r\n        address owner\r\n    );\r\n\r\n    event FundraiserStateChanged(\r\n        uint32 id,\r\n        FundraiserState state\r\n    );\r\n\r\n    event FundraiserFundsChanged(\r\n        uint32 id,\r\n        uint256 raised\r\n    );\r\n\r\n    modifier onlyOwner(uint32 fundraiserId) {\r\n        require(msg.sender == fundraisers[fundraiserId].owner, \"Operation only allowed for fundrayser's owner\");\r\n        _;\r\n    }\r\n\r\n    modifier activeFundraiser(uint32 fundraiserId) {\r\n        require(fundraiserId < fundraiserCount, \"Fundrayser does not exist\");\r\n        require(fundraisers[fundraiserId].state == FundraiserState.ACTIVE, \"Operation only available for ACTIVE fundraysers\");\r\n        _;\r\n    }\r\n\r\n    function getAllFundraisers() public view returns \r\n        (uint32[] memory, address[] memory, string[] memory, uint256[] memory, uint256[] memory, FundraiserState[] memory) {\r\n        \r\n        uint32[] memory ids = new uint32[](fundraiserCount);\r\n        address[] memory adresses = new address[](fundraiserCount);\r\n        string[] memory titles = new string[](fundraiserCount);\r\n        uint256[] memory goals = new uint256[](fundraiserCount);\r\n        uint256[] memory raised = new uint256[](fundraiserCount);\r\n        FundraiserState[] memory states = new FundraiserState[](fundraiserCount);\r\n\r\n        for(uint32 i = 0; i < fundraiserCount; i++) {\r\n            Fundraiser memory raiser = fundraisers[i];\r\n            ids[i] = raiser.id;\r\n            adresses[i] = raiser.owner;\r\n            titles[i] = raiser.title;\r\n            goals[i] = raiser.goal;\r\n            raised[i] = raiser.raised;\r\n            states[i] = raiser.state;\r\n        }\r\n\r\n        return(ids, adresses, titles, goals, raised, states);\r\n    }\r\n\r\n\r\n    function createFundraiser(string memory title, uint256 goal) public {\r\n        require(goal > 0);\r\n        require(bytes(title).length > 0);\r\n\r\n        uint32 newId = fundraiserCount;\r\n        fundraisers[newId] = Fundraiser(\r\n            newId, msg.sender, title, goal, 0, FundraiserState.ACTIVE\r\n        );\r\n\r\n        fundersByFundraiserId[newId].fundersAddreses = [address(0)];\r\n        fundraiserCount++;\r\n\r\n        emit FundraiserCreated(\r\n            newId, title, goal, msg.sender\r\n        );\r\n    }\r\n\r\n    function supportFundraiser(uint32 fundraiserId) public payable activeFundraiser(fundraiserId) {\r\n        require(msg.value > 0);\r\n\r\n        fundraisers[fundraiserId].raised += msg.value;\r\n        fundingsByUser[msg.sender].funded[fundraiserId] += msg.value;\r\n\r\n        if(fundersByFundraiserId[fundraiserId].addressIndex[msg.sender] == 0) {\r\n            fundersByFundraiserId[fundraiserId].addressIndex[msg.sender] = fundersByFundraiserId[fundraiserId].fundersAddreses.length;\r\n            fundersByFundraiserId[fundraiserId].fundersAddreses.push(msg.sender);\r\n        }\r\n\r\n        emit FundraiserFundsChanged(fundraiserId, fundraisers[fundraiserId].raised);\r\n    }\r\n\r\n    function refundFundraiser(uint32 fundraiserId) public activeFundraiser(fundraiserId) {\r\n        require(fundingsByUser[msg.sender].funded[fundraiserId] > 0);\r\n\r\n        uint256 funded = fundingsByUser[msg.sender].funded[fundraiserId];\r\n        delete fundingsByUser[msg.sender].funded[fundraiserId];\r\n        fundraisers[fundraiserId].raised -= funded;\r\n\r\n        // Delete funding from the fundersByFundraiserId lookup\r\n        uint userIndex = fundersByFundraiserId[fundraiserId].addressIndex[msg.sender];\r\n        address payable lastAddress = fundersByFundraiserId[fundraiserId].fundersAddreses[\r\n            fundersByFundraiserId[fundraiserId].fundersAddreses.length - 1\r\n        ];\r\n\r\n        fundersByFundraiserId[fundraiserId].addressIndex[msg.sender] = 0;\r\n        fundersByFundraiserId[fundraiserId].fundersAddreses[userIndex] = lastAddress;\r\n        fundersByFundraiserId[fundraiserId].addressIndex[lastAddress] = userIndex;\r\n        fundersByFundraiserId[fundraiserId].fundersAddreses.pop();\r\n\r\n        msg.sender.transfer(funded);\r\n        emit FundraiserFundsChanged(fundraiserId, fundraisers[fundraiserId].raised);\r\n    }\r\n\r\n    function completeTheFundraiser(uint32 fundraiserId) public activeFundraiser(fundraiserId) onlyOwner(fundraiserId) {\r\n        fundraisers[fundraiserId].state = FundraiserState.COMPLETED;\r\n        msg.sender.transfer(fundraisers[fundraiserId].raised);\r\n\r\n        emit FundraiserStateChanged(fundraiserId, FundraiserState.COMPLETED);\r\n    }\r\n\r\n    function cancelTheFundraiser(uint32 fundraiserId) public activeFundraiser(fundraiserId) onlyOwner(fundraiserId) {\r\n        fundraisers[fundraiserId].state = FundraiserState.CANCELLED;\r\n\r\n        uint256 refundsCount = fundersByFundraiserId[fundraiserId].fundersAddreses.length;\r\n        for(uint256 i = 0; i < refundsCount; i++) {\r\n            address payable refundAddress = fundersByFundraiserId[fundraiserId].fundersAddreses[i];\r\n            refundAddress.transfer(\r\n                fundingsByUser[refundAddress].funded[fundraiserId]\r\n            );\r\n        }\r\n\r\n        emit FundraiserStateChanged(fundraiserId, FundraiserState.CANCELLED);\r\n    }\r\n}",
  "sourcePath": "C:/Uni/BlockChain/dapp/contracts/Application.sol",
  "compiler": {
    "name": "solc",
    "version": "0.7.0+commit.9e61f92b.Emscripten.clang"
  },
  "schemaVersion": "3.3.2",
  "updatedAt": "2020-12-17T18:20:51.509Z",
  "networkType": "ethereum",
  "devdoc": {
    "kind": "dev",
    "methods": {},
    "version": 1
  },
  "userdoc": {
    "kind": "user",
    "methods": {},
    "version": 1
  }
}